{
  "address": "0xabe09f59E458dAedE2A06ca953645B75FCA83e19",
  "abi": [
    {
      "inputs": [
        {
          "internalType": "address",
          "name": "_feeCollector",
          "type": "address"
        }
      ],
      "stateMutability": "nonpayable",
      "type": "constructor"
    },
    {
      "inputs": [
        {
          "internalType": "address",
          "name": "owner",
          "type": "address"
        }
      ],
      "name": "OwnableInvalidOwner",
      "type": "error"
    },
    {
      "inputs": [
        {
          "internalType": "address",
          "name": "account",
          "type": "address"
        }
      ],
      "name": "OwnableUnauthorizedAccount",
      "type": "error"
    },
    {
      "inputs": [],
      "name": "ReentrancyGuardReentrantCall",
      "type": "error"
    },
    {
      "anonymous": false,
      "inputs": [
        {
          "indexed": true,
          "internalType": "uint256",
          "name": "id",
          "type": "uint256"
        }
      ],
      "name": "InvoiceCancelled",
      "type": "event"
    },
    {
      "anonymous": false,
      "inputs": [
        {
          "indexed": true,
          "internalType": "uint256",
          "name": "id",
          "type": "uint256"
        },
        {
          "indexed": true,
          "internalType": "address",
          "name": "freelancer",
          "type": "address"
        },
        {
          "indexed": true,
          "internalType": "address",
          "name": "client",
          "type": "address"
        },
        {
          "indexed": false,
          "internalType": "uint256",
          "name": "amount",
          "type": "uint256"
        },
        {
          "indexed": false,
          "internalType": "address",
          "name": "token",
          "type": "address"
        },
        {
          "indexed": false,
          "internalType": "string",
          "name": "description",
          "type": "string"
        }
      ],
      "name": "InvoiceCreated",
      "type": "event"
    },
    {
      "anonymous": false,
      "inputs": [
        {
          "indexed": true,
          "internalType": "uint256",
          "name": "id",
          "type": "uint256"
        },
        {
          "indexed": true,
          "internalType": "address",
          "name": "payer",
          "type": "address"
        },
        {
          "indexed": false,
          "internalType": "uint256",
          "name": "amount",
          "type": "uint256"
        }
      ],
      "name": "InvoicePaid",
      "type": "event"
    },
    {
      "anonymous": false,
      "inputs": [
        {
          "indexed": true,
          "internalType": "address",
          "name": "previousOwner",
          "type": "address"
        },
        {
          "indexed": true,
          "internalType": "address",
          "name": "newOwner",
          "type": "address"
        }
      ],
      "name": "OwnershipTransferred",
      "type": "event"
    },
    {
      "anonymous": false,
      "inputs": [
        {
          "indexed": true,
          "internalType": "uint256",
          "name": "id",
          "type": "uint256"
        },
        {
          "indexed": true,
          "internalType": "address",
          "name": "freelancer",
          "type": "address"
        },
        {
          "indexed": false,
          "internalType": "uint256",
          "name": "amount",
          "type": "uint256"
        }
      ],
      "name": "PaymentWithdrawn",
      "type": "event"
    },
    {
      "inputs": [],
      "name": "PLATFORM_FEE_BPS",
      "outputs": [
        {
          "internalType": "uint256",
          "name": "",
          "type": "uint256"
        }
      ],
      "stateMutability": "view",
      "type": "function"
    },
    {
      "inputs": [
        {
          "internalType": "uint256",
          "name": "_invoiceId",
          "type": "uint256"
        }
      ],
      "name": "cancelInvoice",
      "outputs": [],
      "stateMutability": "nonpayable",
      "type": "function"
    },
    {
      "inputs": [
        {
          "internalType": "address",
          "name": "",
          "type": "address"
        },
        {
          "internalType": "uint256",
          "name": "",
          "type": "uint256"
        }
      ],
      "name": "clientInvoices",
      "outputs": [
        {
          "internalType": "uint256",
          "name": "",
          "type": "uint256"
        }
      ],
      "stateMutability": "view",
      "type": "function"
    },
    {
      "inputs": [
        {
          "internalType": "address",
          "name": "_client",
          "type": "address"
        },
        {
          "internalType": "uint256",
          "name": "_amount",
          "type": "uint256"
        },
        {
          "internalType": "address",
          "name": "_token",
          "type": "address"
        },
        {
          "internalType": "string",
          "name": "_description",
          "type": "string"
        },
        {
          "internalType": "uint256",
          "name": "_dueDate",
          "type": "uint256"
        }
      ],
      "name": "createInvoice",
      "outputs": [
        {
          "internalType": "uint256",
          "name": "",
          "type": "uint256"
        }
      ],
      "stateMutability": "nonpayable",
      "type": "function"
    },
    {
      "inputs": [],
      "name": "feeCollector",
      "outputs": [
        {
          "internalType": "address",
          "name": "",
          "type": "address"
        }
      ],
      "stateMutability": "view",
      "type": "function"
    },
    {
      "inputs": [
        {
          "internalType": "address",
          "name": "",
          "type": "address"
        },
        {
          "internalType": "uint256",
          "name": "",
          "type": "uint256"
        }
      ],
      "name": "freelancerInvoices",
      "outputs": [
        {
          "internalType": "uint256",
          "name": "",
          "type": "uint256"
        }
      ],
      "stateMutability": "view",
      "type": "function"
    },
    {
      "inputs": [
        {
          "internalType": "address",
          "name": "_client",
          "type": "address"
        }
      ],
      "name": "getClientInvoices",
      "outputs": [
        {
          "internalType": "uint256[]",
          "name": "",
          "type": "uint256[]"
        }
      ],
      "stateMutability": "view",
      "type": "function"
    },
    {
      "inputs": [
        {
          "internalType": "address",
          "name": "_freelancer",
          "type": "address"
        }
      ],
      "name": "getFreelancerInvoices",
      "outputs": [
        {
          "internalType": "uint256[]",
          "name": "",
          "type": "uint256[]"
        }
      ],
      "stateMutability": "view",
      "type": "function"
    },
    {
      "inputs": [
        {
          "internalType": "uint256",
          "name": "_invoiceId",
          "type": "uint256"
        }
      ],
      "name": "getInvoice",
      "outputs": [
        {
          "internalType": "address",
          "name": "freelancer",
          "type": "address"
        },
        {
          "internalType": "address",
          "name": "client",
          "type": "address"
        },
        {
          "internalType": "uint256",
          "name": "amount",
          "type": "uint256"
        },
        {
          "internalType": "address",
          "name": "token",
          "type": "address"
        },
        {
          "internalType": "string",
          "name": "description",
          "type": "string"
        },
        {
          "internalType": "uint256",
          "name": "dueDate",
          "type": "uint256"
        },
        {
          "internalType": "uint256",
          "name": "createdAt",
          "type": "uint256"
        },
        {
          "internalType": "enum InvoiceFactory.InvoiceStatus",
          "name": "status",
          "type": "uint8"
        }
      ],
      "stateMutability": "view",
      "type": "function"
    },
    {
      "inputs": [],
      "name": "invoiceCounter",
      "outputs": [
        {
          "internalType": "uint256",
          "name": "",
          "type": "uint256"
        }
      ],
      "stateMutability": "view",
      "type": "function"
    },
    {
      "inputs": [
        {
          "internalType": "uint256",
          "name": "",
          "type": "uint256"
        }
      ],
      "name": "invoices",
      "outputs": [
        {
          "internalType": "uint256",
          "name": "id",
          "type": "uint256"
        },
        {
          "internalType": "address",
          "name": "freelancer",
          "type": "address"
        },
        {
          "internalType": "address",
          "name": "client",
          "type": "address"
        },
        {
          "internalType": "uint256",
          "name": "amount",
          "type": "uint256"
        },
        {
          "internalType": "address",
          "name": "token",
          "type": "address"
        },
        {
          "internalType": "string",
          "name": "description",
          "type": "string"
        },
        {
          "internalType": "uint256",
          "name": "dueDate",
          "type": "uint256"
        },
        {
          "internalType": "uint256",
          "name": "createdAt",
          "type": "uint256"
        },
        {
          "internalType": "enum InvoiceFactory.InvoiceStatus",
          "name": "status",
          "type": "uint8"
        },
        {
          "internalType": "bool",
          "name": "exists",
          "type": "bool"
        }
      ],
      "stateMutability": "view",
      "type": "function"
    },
    {
      "inputs": [],
      "name": "owner",
      "outputs": [
        {
          "internalType": "address",
          "name": "",
          "type": "address"
        }
      ],
      "stateMutability": "view",
      "type": "function"
    },
    {
      "inputs": [
        {
          "internalType": "uint256",
          "name": "_invoiceId",
          "type": "uint256"
        }
      ],
      "name": "payInvoice",
      "outputs": [],
      "stateMutability": "nonpayable",
      "type": "function"
    },
    {
      "inputs": [],
      "name": "paymaster",
      "outputs": [
        {
          "internalType": "address",
          "name": "",
          "type": "address"
        }
      ],
      "stateMutability": "view",
      "type": "function"
    },
    {
      "inputs": [],
      "name": "renounceOwnership",
      "outputs": [],
      "stateMutability": "nonpayable",
      "type": "function"
    },
    {
      "inputs": [
        {
          "internalType": "address",
          "name": "_newCollector",
          "type": "address"
        }
      ],
      "name": "setFeeCollector",
      "outputs": [],
      "stateMutability": "nonpayable",
      "type": "function"
    },
    {
      "inputs": [
        {
          "internalType": "address",
          "name": "_paymaster",
          "type": "address"
        }
      ],
      "name": "setPaymaster",
      "outputs": [],
      "stateMutability": "nonpayable",
      "type": "function"
    },
    {
      "inputs": [
        {
          "internalType": "address",
          "name": "newOwner",
          "type": "address"
        }
      ],
      "name": "transferOwnership",
      "outputs": [],
      "stateMutability": "nonpayable",
      "type": "function"
    }
  ],
  "transactionHash": "0x334cbcb8127a72d346a8ce53bfc05102d3fb94005da89e7a13ada906f148bf64",
  "args": [
    "0x4e8da9B65E450461504ba43ABe2438533d711f74"
  ],
  "numDeployments": 1,
  "solcInputHash": "d6c7f847bdd5eaac2ba6e835b758f1ea",
  "bytecode": "0x6080346100fa57601f6113e438819003918201601f19168301916001600160401b038311848410176100ff578084926020946040528339810103126100fa57516001600160a01b038116908190036100fa5733156100e45760008054336001600160a01b0319821681178355604051939290916001600160a01b0316907f8be0079c531659141344cd1fd0a4f28419497f9722a3daafe3b4186f6b6457e09080a360017f9b779b17422d0df92223018b32b4d1fa46e071723d6817e2486d003becc55f005560018060a01b03196005541617600555600180556112ce90816101168239f35b631e4fbdf760e01b600052600060045260246000fd5b600080fd5b634e487b7160e01b600052604160045260246000fdfe608080604052600436101561001357600080fd5b60003560e01c90816316e4cbf914610fa6575080631cb9b2aa14610f2f5780632a97fa7714610eec578063372f70a714610a155780633a23cc0a146109515780634e6d140514610883578063539aa77f14610867578063715018a61461080e5780638da5cb5b146107e557806398c9eb911461075e578063a42dce80146106df578063a57b381c146106c1578063a9f1aba814610677578063ac60a6cd146102fc578063c415b95c146102d3578063d5e57ad51461027a578063da9c273d146101735763f2fde38b146100e557600080fd5b3461016e57602036600319011261016e576100fe610fca565b61010661126f565b6001600160a01b0316801561015857600080546001600160a01b03198116831782556001600160a01b0316907f8be0079c531659141344cd1fd0a4f28419497f9722a3daafe3b4186f6b6457e09080a3005b631e4fbdf760e01b600052600060045260246000fd5b600080fd5b3461016e57602036600319011261016e57600435806000526002602052604060002060088101908154906101ac60ff8360081c166111d0565b600660018060a01b03600183015416331491015442118115610272575b501561022d5760ff166004811015610217576101e59015611215565b805460ff191660021790557f2e9842040508f80e6420769a8673529eb3af5b952f53af83d9c9d3432da78046600080a2005b634e487b7160e01b600052602160045260246000fd5b60405162461bcd60e51b815260206004820152601860248201527f4e6f7420617574686f72697a656420746f2063616e63656c00000000000000006044820152606490fd5b9050846101c9565b3461016e57604036600319011261016e57610293610fca565b6001600160a01b031660009081526004602052604090208054602435919082101561016e576020916102c491611168565b90549060031b1c604051908152f35b3461016e57600036600319011261016e576005546040516001600160a01b039091168152602090f35b3461016e57602036600319011261016e5760043560027f9b779b17422d0df92223018b32b4d1fa46e071723d6817e2486d003becc55f0054146106665760027f9b779b17422d0df92223018b32b4d1fa46e071723d6817e2486d003becc55f0055806000526002602052604060002060088101805461038060ff8260081c166111d0565b60028301546001600160a01b0316330361062b5760ff166004811015610217576103aa9015611215565b600682015442116105f45760018060a01b03600483015416600383019283549260328402848104603214851517156105de57612710900490818503948086116105de57604051906323b872dd60e01b825233600483015230602483015260448201526020816064816000895af1908115610506576000916105bf575b501561058257805460ff1916600117905580610512575b506001015460405163a9059cbb60e01b81526001600160a01b0390911660048201526024810192909252602090829081600081604481015b03925af18015610506576104d9575b5054906040519182527fa6abfda59e12fa300d17e1aa76bd3233eaf23ee4feb4b02b6516ad1d60be840060203393a360017f9b779b17422d0df92223018b32b4d1fa46e071723d6817e2486d003becc55f0055005b6104fa9060203d6020116104ff575b6104f2818361101a565b810190611257565b610484565b503d6104e8565b6040513d6000823e3d90fd5b60055460405163a9059cbb60e01b81526001600160a01b03909116600482015260248101919091529290916020846044816000855af19283156105065761047594602094610565575b509193509161043d565b61057b90853d87116104ff576104f2818361101a565b508761055b565b60405162461bcd60e51b8152602060048201526015602482015274151bdad95b881d1c985b9cd9995c8819985a5b1959605a1b6044820152606490fd5b6105d8915060203d6020116104ff576104f2818361101a565b88610426565b634e487b7160e01b600052601160045260246000fd5b60405162461bcd60e51b815260206004820152600f60248201526e496e766f696365206f76657264756560881b6044820152606490fd5b60405162461bcd60e51b81526020600482015260136024820152724f6e6c7920636c69656e742063616e2070617960681b6044820152606490fd5b633ee5aeb560e01b60005260046000fd5b3461016e57604036600319011261016e57610690610fca565b6001600160a01b031660009081526003602052604090208054602435919082101561016e576020916102c491611168565b3461016e57600036600319011261016e576020600154604051908152f35b3461016e57602036600319011261016e576106f8610fca565b61070061126f565b6001600160a01b03168015610727576001600160601b0360a01b6005541617600555600080f35b60405162461bcd60e51b815260206004820152600f60248201526e496e76616c6964206164647265737360881b6044820152606490fd5b3461016e57602036600319011261016e576001600160a01b0361077f610fca565b166000526003602052604060002060405190816020825491828152019160005260206000209060005b8181106107cf576107cb856107bf8187038261101a565b60405191829182610fe0565b0390f35b82548452602090930192600192830192016107a8565b3461016e57600036600319011261016e576000546040516001600160a01b039091168152602090f35b3461016e57600036600319011261016e5761082761126f565b600080546001600160a01b0319811682556001600160a01b03167f8be0079c531659141344cd1fd0a4f28419497f9722a3daafe3b4186f6b6457e08280a3005b3461016e57600036600319011261016e57602060405160328152f35b3461016e57602036600319011261016e5760043560005260026020526040600020805460018060a01b036001830154169160ff60018060a01b0360028301541660038301549261092660018060a01b036004830154166108e5600584016110c4565b9060068401549660086007860154950154956040519a8b9a8b5260208b015260408a01526060890152608088015261014060a088015261014087019061103c565b9360c086015260e0850152610941610100850183831661107d565b60081c1615156101208301520390f35b3461016e57602036600319011261016e576004356000526002602052604060002060088101549061098760ff8360081c166111d0565b6001810154600282015460038301546004840154600685015460078601546001600160a01b03948516979585169691956107cb95909491936109fd939116906109d2906005016110c4565b91604051998a998a5260208a015260408901526060880152610100608088015261010087019061103c565b9360a086015260c085015260ff60e08501911661107d565b3461016e5760a036600319011261016e57610a2e610fca565b602435906044356001600160a01b0381169081900361016e5760643567ffffffffffffffff811161016e573660238201121561016e57806004013567ffffffffffffffff8111610ddc5760405191610a90601f8301601f19166020018461101a565b818352366024838301011161016e57816000926024602093018386013783010152608435926001600160a01b0316918215610eae578415610e74578015610e375742841115610df2576001549360405190610140820182811067ffffffffffffffff821117610ddc576040528582526020820191338352604081019186835260608201908982526080830186815260a084019088825260c0850192835260e08501934285526101008601966000885261012087019860018a528d600052600260205260406000209751885560018060a01b03905116600188019060018060a01b03166001600160601b0360a01b82541617905560018060a01b03905116600287019060018060a01b03166001600160601b0360a01b82541617905551600386015560018060a01b03905116600485019060018060a01b03166001600160601b0360a01b82541617905560058401905180519067ffffffffffffffff8211610ddc57610bfb835461108a565b601f8111610d94575b50602090601f8311600114610d2757600896959493929160009183610d1c575b50508160011b916000199060031b1c19161790555b5160068301555160078201550190519160048310156102175760009260ff8019845416911617825551151561ff0082549160081b169061ff0019161790553381526003602052610c8c8560408320611196565b8381526004602052610ca18560408320611196565b600154906000198214610d085750602095859260017fdd996abc73a7e08d96a3fa8e14aa8a81f2370dacb9bea9476ee69b30524ffbee9301600155604051918252878201526060604082015280610cfd3395606083019061103c565b0390a4604051908152f35b634e487b7160e01b81526011600452602490fd5b015190508e80610c24565b90601f1983169184600052816000209260005b818110610d7c575091600193918560089a999897969410610d63575b505050811b019055610c39565b015160001960f88460031b161c191690558e8080610d56565b92936020600181928786015181550195019301610d3a565b836000526020600020601f840160051c81019160208510610dd2575b601f0160051c01905b818110610dc65750610c04565b60008155600101610db9565b9091508190610db0565b634e487b7160e01b600052604160045260246000fd5b60405162461bcd60e51b815260206004820152601a60248201527f4475652064617465206d75737420626520696e206675747572650000000000006044820152606490fd5b60405162461bcd60e51b8152602060048201526015602482015274496e76616c696420746f6b656e206164647265737360581b6044820152606490fd5b60405162461bcd60e51b81526020600482015260126024820152710416d6f756e74206d757374206265203e20360741b6044820152606490fd5b60405162461bcd60e51b8152602060048201526016602482015275496e76616c696420636c69656e74206164647265737360501b6044820152606490fd5b3461016e57602036600319011261016e57610f05610fca565b610f0d61126f565b600680546001600160a01b0319166001600160a01b0392909216919091179055005b3461016e57602036600319011261016e576001600160a01b03610f50610fca565b166000526004602052604060002060405190816020825491828152019160005260206000209060005b818110610f90576107cb856107bf8187038261101a565b8254845260209093019260019283019201610f79565b3461016e57600036600319011261016e576006546001600160a01b03168152602090f35b600435906001600160a01b038216820361016e57565b602060408183019282815284518094520192019060005b8181106110045750505090565b8251845260209384019390920191600101610ff7565b90601f8019910116810190811067ffffffffffffffff821117610ddc57604052565b919082519283825260005b848110611068575050826000602080949584010152601f8019910116010190565b80602080928401015182828601015201611047565b9060048210156102175752565b90600182811c921680156110ba575b60208310146110a457565b634e487b7160e01b600052602260045260246000fd5b91607f1691611099565b90604051918260008254926110d88461108a565b808452936001811690811561114657506001146110ff575b506110fd9250038361101a565b565b90506000929192526020600020906000915b81831061112a5750509060206110fd92820101386110f0565b6020919350806001915483858901015201910190918492611111565b9050602092506110fd94915060ff191682840152151560051b820101386110f0565b80548210156111805760005260206000200190600090565b634e487b7160e01b600052603260045260246000fd5b805468010000000000000000811015610ddc576111b891600182018155611168565b819291549060031b91821b91600019901b1916179055565b156111d757565b60405162461bcd60e51b8152602060048201526016602482015275125b9d9bda58d948191bd95cc81b9bdd08195e1a5cdd60521b6044820152606490fd5b1561121c57565b60405162461bcd60e51b8152602060048201526013602482015272496e766f696365206e6f742070656e64696e6760681b6044820152606490fd5b9081602091031261016e5751801515810361016e5790565b6000546001600160a01b0316330361128357565b63118cdaa760e01b6000523360045260246000fdfea2646970667358221220f0d082a5dc171c30cd56aa4b11f28ff631bd346b9b79e68dc143fa62af830a0164736f6c634300081c0033",
  "devdoc": {
    "errors": {
      "OwnableInvalidOwner(address)": [
        {
          "details": "The owner is not a valid owner account. (eg. `address(0)`)"
        }
      ],
      "OwnableUnauthorizedAccount(address)": [
        {
          "details": "The caller account is not authorized to perform an operation."
        }
      ],
      "ReentrancyGuardReentrantCall()": [
        {
          "details": "Unauthorized reentrant call."
        }
      ]
    },
    "kind": "dev",
    "methods": {
      "owner()": {
        "details": "Returns the address of the current owner."
      },
      "renounceOwnership()": {
        "details": "Leaves the contract without owner. It will not be possible to call `onlyOwner` functions. Can only be called by the current owner. NOTE: Renouncing ownership will leave the contract without an owner, thereby disabling any functionality that is only available to the owner."
      },
      "transferOwnership(address)": {
        "details": "Transfers ownership of the contract to a new account (`newOwner`). Can only be called by the current owner."
      }
    },
    "version": 1
  },
  "userdoc": {
    "kind": "user",
    "methods": {},
    "version": 1
  },
  "storageLayout": {
    "storage": [
      {
        "astId": 8,
        "contract": "contracts/InvoiceFactory.sol:InvoiceFactory",
        "label": "_owner",
        "offset": 0,
        "slot": "0",
        "type": "t_address"
      },
      {
        "astId": 1208,
        "contract": "contracts/InvoiceFactory.sol:InvoiceFactory",
        "label": "invoiceCounter",
        "offset": 0,
        "slot": "1",
        "type": "t_uint256"
      },
      {
        "astId": 1213,
        "contract": "contracts/InvoiceFactory.sol:InvoiceFactory",
        "label": "invoices",
        "offset": 0,
        "slot": "2",
        "type": "t_mapping(t_uint256,t_struct(Invoice)1201_storage)"
      },
      {
        "astId": 1218,
        "contract": "contracts/InvoiceFactory.sol:InvoiceFactory",
        "label": "freelancerInvoices",
        "offset": 0,
        "slot": "3",
        "type": "t_mapping(t_address,t_array(t_uint256)dyn_storage)"
      },
      {
        "astId": 1223,
        "contract": "contracts/InvoiceFactory.sol:InvoiceFactory",
        "label": "clientInvoices",
        "offset": 0,
        "slot": "4",
        "type": "t_mapping(t_address,t_array(t_uint256)dyn_storage)"
      },
      {
        "astId": 1262,
        "contract": "contracts/InvoiceFactory.sol:InvoiceFactory",
        "label": "feeCollector",
        "offset": 0,
        "slot": "5",
        "type": "t_address"
      },
      {
        "astId": 1264,
        "contract": "contracts/InvoiceFactory.sol:InvoiceFactory",
        "label": "paymaster",
        "offset": 0,
        "slot": "6",
        "type": "t_address"
      }
    ],
    "types": {
      "t_address": {
        "encoding": "inplace",
        "label": "address",
        "numberOfBytes": "20"
      },
      "t_array(t_uint256)dyn_storage": {
        "base": "t_uint256",
        "encoding": "dynamic_array",
        "label": "uint256[]",
        "numberOfBytes": "32"
      },
      "t_bool": {
        "encoding": "inplace",
        "label": "bool",
        "numberOfBytes": "1"
      },
      "t_enum(InvoiceStatus)1206": {
        "encoding": "inplace",
        "label": "enum InvoiceFactory.InvoiceStatus",
        "numberOfBytes": "1"
      },
      "t_mapping(t_address,t_array(t_uint256)dyn_storage)": {
        "encoding": "mapping",
        "key": "t_address",
        "label": "mapping(address => uint256[])",
        "numberOfBytes": "32",
        "value": "t_array(t_uint256)dyn_storage"
      },
      "t_mapping(t_uint256,t_struct(Invoice)1201_storage)": {
        "encoding": "mapping",
        "key": "t_uint256",
        "label": "mapping(uint256 => struct InvoiceFactory.Invoice)",
        "numberOfBytes": "32",
        "value": "t_struct(Invoice)1201_storage"
      },
      "t_string_storage": {
        "encoding": "bytes",
        "label": "string",
        "numberOfBytes": "32"
      },
      "t_struct(Invoice)1201_storage": {
        "encoding": "inplace",
        "label": "struct InvoiceFactory.Invoice",
        "members": [
          {
            "astId": 1181,
            "contract": "contracts/InvoiceFactory.sol:InvoiceFactory",
            "label": "id",
            "offset": 0,
            "slot": "0",
            "type": "t_uint256"
          },
          {
            "astId": 1183,
            "contract": "contracts/InvoiceFactory.sol:InvoiceFactory",
            "label": "freelancer",
            "offset": 0,
            "slot": "1",
            "type": "t_address"
          },
          {
            "astId": 1185,
            "contract": "contracts/InvoiceFactory.sol:InvoiceFactory",
            "label": "client",
            "offset": 0,
            "slot": "2",
            "type": "t_address"
          },
          {
            "astId": 1187,
            "contract": "contracts/InvoiceFactory.sol:InvoiceFactory",
            "label": "amount",
            "offset": 0,
            "slot": "3",
            "type": "t_uint256"
          },
          {
            "astId": 1189,
            "contract": "contracts/InvoiceFactory.sol:InvoiceFactory",
            "label": "token",
            "offset": 0,
            "slot": "4",
            "type": "t_address"
          },
          {
            "astId": 1191,
            "contract": "contracts/InvoiceFactory.sol:InvoiceFactory",
            "label": "description",
            "offset": 0,
            "slot": "5",
            "type": "t_string_storage"
          },
          {
            "astId": 1193,
            "contract": "contracts/InvoiceFactory.sol:InvoiceFactory",
            "label": "dueDate",
            "offset": 0,
            "slot": "6",
            "type": "t_uint256"
          },
          {
            "astId": 1195,
            "contract": "contracts/InvoiceFactory.sol:InvoiceFactory",
            "label": "createdAt",
            "offset": 0,
            "slot": "7",
            "type": "t_uint256"
          },
          {
            "astId": 1198,
            "contract": "contracts/InvoiceFactory.sol:InvoiceFactory",
            "label": "status",
            "offset": 0,
            "slot": "8",
            "type": "t_enum(InvoiceStatus)1206"
          },
          {
            "astId": 1200,
            "contract": "contracts/InvoiceFactory.sol:InvoiceFactory",
            "label": "exists",
            "offset": 1,
            "slot": "8",
            "type": "t_bool"
          }
        ],
        "numberOfBytes": "288"
      },
      "t_uint256": {
        "encoding": "inplace",
        "label": "uint256",
        "numberOfBytes": "32"
      }
    }
  }
}